0000000011153009825000133000000000000USINA ALTA MOGIANA S/A-ACUCAR E ALCOOL                                                                                                                2611202225122022200220231448
000000002226112022070301211228504300000000000042393E01O
000000003226112022130101211228504300000000000042393S01O
000000004226112022140001211228504300000000000042393E02O
000000005226112022150501211228504300000000000042393S02O
000000006228112022065701211228504300000000000042393E01O
000000007228112022115401211228504300000000000042393S01O
000000008228112022125401211228504300000000000000000E02IESQUECIMENTO DE MARCACAO                                                                            
000000009228112022180001211228504300000000000000000S02IESQUECIMENTO DE MARCACAO                                                                            
000000010229112022065701211228504300000000000042393E01O
000000011229112022121501211228504300000000000042393S01O
000000012229112022125801211228504300000000000042393E02O
000000013229112022174501211228504300000000000042393S02O
000000014230112022065801211228504300000000000042393E01O
000000015230112022122101211228504300000000000042393S01O
000000016230112022130501211228504300000000000042393E02O
000000017230112022184501211228504300000000000042393S02O
000000018201122022070001211228504300000000000000000E01ITRABALHO EXTERNO                                                                                    
000000019201122022122001211228504300000000000000000S01ITRABALHO EXTERNO                                                                                    
000000020201122022132001211228504300000000000000000E02ITRABALHO EXTERNO                                                                                    
000000021201122022180001211228504300000000000000000S02ITRABALHO EXTERNO                                                                                    
000000022202122022070101211228504300000000000042393E01O
000000023202122022122901211228504300000000000042393S01O
000000024202122022132901211228504300000000000000000E02IESQUECIMENTO DE MARCACAO                                                                            
000000025202122022145401211228504300000000000042393S02O
000000026203122022065901211228504300000000000042393E01O
000000027203122022133601211228504300000000000042393S01O
000000028203122022143701211228504300000000000042393E02O
000000029203122022150401211228504300000000000042393S02O
000000030205122022065701211228504300000000000042393E01O
000000031205122022123201211228504300000000000042393S01O
000000032205122022133201211228504300000000000042393E02O
000000033205122022145801211228504300000000000042393S02O
000000034206122022070001211228504300000000000042393E01O
000000035206122022122401211228504300000000000042393S01O
000000036206122022131201211228504300000000000042393E02O
000000037206122022184001211228504300000000000042393S02O
000000038207122022065501211228504300000000000042393E01O
000000039207122022122601211228504300000000000042393S01O
000000040207122022132601211228504300000000000042393E02O
000000041207122022182601211228504300000000000042393S02O
000000042208122022070201211228504300000000000042393E01O
000000043208122022123101211228504300000000000042393S01O
000000044208122022133101211228504300000000000042393E02O
000000045208122022180001211228504300000000000000000S02ITRABALHO EXTERNO                                                                                    
000000046209122022070001211228504300000000000042393E01O
000000047209122022123001211228504300000000000000000S01ITRABALHO EXTERNO                                                                                    
000000048209122022133001211228504300000000000000000E02ITRABALHO EXTERNO                                                                                    
000000049209122022180001211228504300000000000000000S02ITRABALHO EXTERNO                                                                                    
000000050210122022070801211228504300000000000042393E01O
000000051210122022132701211228504300000000000042393S01O
000000052210122022143201211228504300000000000042393E02O
000000053210122022150501211228504300000000000042393S02O
000000054212122022064701211228504300000000000042393E01O
000000055212122022123601211228504300000000000042393S01O
000000056212122022132701211228504300000000000042393E02O
000000057212122022175301211228504300000000000042393S02O
000000058213122022070101211228504300000000000042393E01O
000000059213122022125601211228504300000000000042393S01O
000000060213122022135601211228504300000000000042393E02O
000000061213122022182001211228504300000000000000000S02ITRABALHO EXTERNO                                                                                    
000000062214122022070001211228504300000000000000000E01IESQUECIMENTO DE MARCACAO                                                                            
000000063214122022123101211228504300000000000042393S01O
000000064214122022133001211228504300000000000042393E02O
000000065214122022182901211228504300000000000042393S02O
000000066215122022065401211228504300000000000042393E01O
000000067215122022184401211228504300000000000042393S01O
000000068215122022120001211228504300000000000000000S01P
000000069215122022130001211228504300000000000000000E02P
000000070215122022184701211228504300000000000042393D02IMARCACAO EM DUPLICIDADE                                                                             
000000071216122022065201211228504300000000000042393E01O
000000072216122022123601211228504300000000000042393S01O
000000073216122022133201211228504300000000000042393E02O
000000074216122022180001211228504300000000000000000S02IESQUECIMENTO DE MARCACAO                                                                            
000000075217122022070201211228504300000000000042393E01O
000000076217122022130001211228504300000000000042393S01O
000000077217122022140301211228504300000000000042393E02O
000000078217122022150501211228504300000000000042393S02O
000000079219122022070201211228504300000000000042393E01O
000000080219122022122601211228504300000000000042393S01O
000000081219122022132601211228504300000000000042393E02O
000000082219122022174701211228504300000000000042393S02O
000000083220122022065701211228504300000000000042393E01O
000000084220122022123801211228504300000000000042393S01O
000000085220122022133601211228504300000000000042393E02O
000000086220122022174701211228504300000000000042393S02O
000000087221122022065501211228504300000000000042393E01O
000000088221122022124601211228504300000000000042393S01O
000000089221122022134401211228504300000000000042393E02O
000000090221122022185001211228504300000000000000000S02ITRABALHO EXTERNO                                                                                    
000000091222122022070101211228504300000000000042393E01O
000000092222122022124101211228504300000000000042393S01O
000000093222122022134201211228504300000000000042393E02O
000000094222122022180001211228504300000000000000000S02IESQUECIMENTO DE MARCACAO                                                                            
000000095223122022070101211228504300000000000042393E01O
000000096223122022124501211228504300000000000042393S01O
000000097223122022133901211228504300000000000042393E02O
000000098223122022190001211228504300000000000000000S02ITRABALHO EXTERNO                                                                                    
000000099224122022070901211228504300000000000042393E01O
000000100224122022123701211228504300000000000042393S01O
000000101224122022133701211228504300000000000000000E02ITRABALHO EXTERNO                                                                                    
000000102224122022220001211228504300000000000000000S02ITRABALHO EXTERNO                                                                                    
0000001039
